{"abi":[{"type":"function","name":"collect","inputs":[],"outputs":[{"name":"","type":"bytes","internalType":"bytes"}],"stateMutability":"view"},{"type":"function","name":"shouldRespond","inputs":[{"name":"data","type":"bytes[]","internalType":"bytes[]"}],"outputs":[{"name":"","type":"bool","internalType":"bool"},{"name":"","type":"bytes","internalType":"bytes"}],"stateMutability":"pure"}],"bytecode":{"object":"0x6080604052348015600e575f5ffd5b506108cc8061001c5f395ff3fe608060405234801561000f575f5ffd5b5060043610610034575f3560e01c806344e6e4ce14610038578063e522538114610069575b5f5ffd5b610052600480360381019061004d9190610435565b610087565b60405161006092919061050a565b60405180910390f35b61007161029e565b60405161007e9190610538565b60405180910390f35b5f606060028484905010156100af575f60405180602001604052805f81525091509150610297565b5f5f5f86866002898990506100c4919061058e565b8181106100d4576100d36105c1565b5b90506020028101906100e691906105fa565b8101906100f391906106e0565b9250925092505f5f5f898960018c8c905061010e919061058e565b81811061011e5761011d6105c1565b5b905060200281019061013091906105fa565b81019061013d91906106e0565b9250925092505f73ffffffffffffffffffffffffffffffffffffffff168673ffffffffffffffffffffffffffffffffffffffff1614806101a857505f73ffffffffffffffffffffffffffffffffffffffff168373ffffffffffffffffffffffffffffffffffffffff16145b156101cc575f60405180602001604052805f81525097509750505050505050610297565b8273ffffffffffffffffffffffffffffffffffffffff168673ffffffffffffffffffffffffffffffffffffffff161461021e575f60405180602001604052805f81525097509750505050505050610297565b5f8190508286111561027b575f8387610237919061058e565b905081811061027957600188888684604051602001610259949392919061075f565b604051602081830303815290604052995099505050505050505050610297565b505b5f60405180602001604052805f81525098509850505050505050505b9250929050565b606060445f36905010156102d7575f5f5f6040516020016102c1939291906107a2565b60405160208183030381529060405290506103c9565b5f5f5f3660049080926102ec939291906107df565b8101906102f99190610819565b915091505f5f90508273ffffffffffffffffffffffffffffffffffffffff166318160ddd6040518163ffffffff1660e01b8152600401602060405180830381865afa92505050801561036957506040513d601f19601f82011682018060405250810190610366919061086b565b60015b61039b57825f83604051602001610382939291906107a2565b60405160208183030381529060405293505050506103c9565b809150508281836040516020016103b4939291906107a2565b60405160208183030381529060405293505050505b90565b5f5ffd5b5f5ffd5b5f5ffd5b5f5ffd5b5f5ffd5b5f5f83601f8401126103f5576103f46103d4565b5b8235905067ffffffffffffffff811115610412576104116103d8565b5b60208301915083602082028301111561042e5761042d6103dc565b5b9250929050565b5f5f6020838503121561044b5761044a6103cc565b5b5f83013567ffffffffffffffff811115610468576104676103d0565b5b610474858286016103e0565b92509250509250929050565b5f8115159050919050565b61049481610480565b82525050565b5f81519050919050565b5f82825260208201905092915050565b8281835e5f83830152505050565b5f601f19601f8301169050919050565b5f6104dc8261049a565b6104e681856104a4565b93506104f68185602086016104b4565b6104ff816104c2565b840191505092915050565b5f60408201905061051d5f83018561048b565b818103602083015261052f81846104d2565b90509392505050565b5f6020820190508181035f83015261055081846104d2565b905092915050565b5f819050919050565b7f4e487b71000000000000000000000000000000000000000000000000000000005f52601160045260245ffd5b5f61059882610558565b91506105a383610558565b92508282039050818111156105bb576105ba610561565b5b92915050565b7f4e487b71000000000000000000000000000000000000000000000000000000005f52603260045260245ffd5b5f5ffd5b5f5ffd5b5f5ffd5b5f5f83356001602003843603038112610616576106156105ee565b5b80840192508235915067ffffffffffffffff821115610638576106376105f2565b5b602083019250600182023603831315610654576106536105f6565b5b509250929050565b5f73ffffffffffffffffffffffffffffffffffffffff82169050919050565b5f6106858261065c565b9050919050565b6106958161067b565b811461069f575f5ffd5b50565b5f813590506106b08161068c565b92915050565b6106bf81610558565b81146106c9575f5ffd5b50565b5f813590506106da816106b6565b92915050565b5f5f5f606084860312156106f7576106f66103cc565b5b5f610704868287016106a2565b9350506020610715868287016106cc565b9250506040610726868287016106cc565b9150509250925092565b5f61073a8261065c565b9050919050565b61074a81610730565b82525050565b61075981610558565b82525050565b5f6080820190506107725f830187610741565b61077f6020830186610750565b61078c6040830185610750565b6107996060830184610750565b95945050505050565b5f6060820190506107b55f830186610741565b6107c26020830185610750565b6107cf6040830184610750565b949350505050565b5f5ffd5b5f5ffd5b5f5f858511156107f2576107f16107d7565b5b83861115610803576108026107db565b5b6001850283019150848603905094509492505050565b5f5f6040838503121561082f5761082e6103cc565b5b5f61083c858286016106a2565b925050602061084d858286016106cc565b9150509250929050565b5f81519050610865816106b6565b92915050565b5f602082840312156108805761087f6103cc565b5b5f61088d84828501610857565b9150509291505056fea264697066735822122063a040a13a3777f40d743f942b6dc13d8b331667fa01d7e77cb353326c1ca36564736f6c634300081e0033","linkReferences":{}},"methodIdentifiers":{"collect()":"e5225381","shouldRespond(bytes[])":"44e6e4ce"},"id":17}