{"abi":[{"type":"function","name":"handleRug","inputs":[{"name":"pool","type":"address","internalType":"address"},{"name":"prevSupply","type":"uint256","internalType":"uint256"},{"name":"newSupply","type":"uint256","internalType":"uint256"},{"name":"withdrawn","type":"uint256","internalType":"uint256"}],"outputs":[],"stateMutability":"nonpayable"},{"type":"function","name":"lastTriggeredBlock","inputs":[{"name":"","type":"address","internalType":"address"}],"outputs":[{"name":"","type":"uint256","internalType":"uint256"}],"stateMutability":"view"},{"type":"event","name":"RugDetected","inputs":[{"name":"pool","type":"address","indexed":true,"internalType":"address"},{"name":"prevSupply","type":"uint256","indexed":false,"internalType":"uint256"},{"name":"newSupply","type":"uint256","indexed":false,"internalType":"uint256"},{"name":"withdrawn","type":"uint256","indexed":false,"internalType":"uint256"}],"anonymous":false}],"bytecode":{"object":"0x6080604052348015600e575f5ffd5b5061039e8061001c5f395ff3fe608060405234801561000f575f5ffd5b5060043610610034575f3560e01c80639f6addfb14610038578063d8e086a314610068575b5f5ffd5b610052600480360381019061004d91906101d1565b610084565b60405161005f9190610214565b60405180910390f35b610082600480360381019061007d9190610257565b610098565b005b5f602052805f5260405f205f915090505481565b5f81116100da576040517f08c379a00000000000000000000000000000000000000000000000000000000081526004016100d190610315565b60405180910390fd5b435f5f8673ffffffffffffffffffffffffffffffffffffffff1673ffffffffffffffffffffffffffffffffffffffff1681526020019081526020015f20819055508373ffffffffffffffffffffffffffffffffffffffff167f723135ba7e86b8bc319a7567585fbd9907f1f2ca2f7c601d5b692ba452640f5584848460405161016593929190610333565b60405180910390a250505050565b5f5ffd5b5f73ffffffffffffffffffffffffffffffffffffffff82169050919050565b5f6101a082610177565b9050919050565b6101b081610196565b81146101ba575f5ffd5b50565b5f813590506101cb816101a7565b92915050565b5f602082840312156101e6576101e5610173565b5b5f6101f3848285016101bd565b91505092915050565b5f819050919050565b61020e816101fc565b82525050565b5f6020820190506102275f830184610205565b92915050565b610236816101fc565b8114610240575f5ffd5b50565b5f813590506102518161022d565b92915050565b5f5f5f5f6080858703121561026f5761026e610173565b5b5f61027c878288016101bd565b945050602061028d87828801610243565b935050604061029e87828801610243565b92505060606102af87828801610243565b91505092959194509250565b5f82825260208201905092915050565b7f6e6f2d7769746864726177616c000000000000000000000000000000000000005f82015250565b5f6102ff600d836102bb565b915061030a826102cb565b602082019050919050565b5f6020820190508181035f83015261032c816102f3565b9050919050565b5f6060820190506103465f830186610205565b6103536020830185610205565b6103606040830184610205565b94935050505056fea26469706673582212209695b82bc3e7fdbce30a796bee15aafb43a057cf5c448a83e219d9e01e8ed20864736f6c634300081e0033","linkReferences":{}},"methodIdentifiers":{"handleRug(address,uint256,uint256,uint256)":"d8e086a3","lastTriggeredBlock(address)":"9f6addfb"},"id":16}